:020000042000DA
:10000000554F5343000101000100000000000000B3
:100010004F000020CD00002049030020590300209C
:1000200043000020450000205B030020000000008A
:1000300000000000000000000000000000000000C0
:100040007047704770477047704770477047104B54
:10005000104A2DE9F041884607460021934202D01C
:1000600003F8011FFAE70C4B0C4CE41AA41000250E
:100070001E46A54205D056F8253003B198470135F4
:10008000F7E74146384600F00BF8BDE8F08100BFC5
:10009000070400209B0400204000002040000020B6
:1000A000084B4FF07E5200211A6019730022022182
:1000B0009A605A601961DA610A211A62024A9961EA
:1000C0001A63704708040020CDCC4C3E2DE9F04F58
:1000D000944CD0ED007A94F80CA02569924E94F8D7
:1000E00018B0FAEEE07A88461AF001012DED088B7F
:1000F00007EE102A08BF94ED029AC4ED017A18BFEA
:10010000B0EE679A77EEC97AB8EE477A002387EEA9
:10011000878A23738388C5F3460708EB8209EDB20B
:10012000824A06EBC5054FEA132ADBB285B007FB0E
:100130001B37D4ED008ADFED7E9A04350436104675
:10014000AE4256D0FF2397FBF3F3C3EB032EB7EB7E
:100150000E0E44BF03F1FF330EF1FF0E53444EEA7F
:1001600003239BB24FEA232EBEF1960FDBB207EEBC
:10017000903AD8BF73460EF1010E5FFA8EFEC8BFEB
:100180009723BEF1960F88BF4FF0970E02EB8303C3
:1001900000EB8E0E93ED007ADEED006AF8EEE77A62
:1001A00076EEC76A67EEA97AA7EEA67ADFED617AE6
:1001B000B4EEE77AF1EE10FAB8BFF0EE477A9FEDB1
:1001C0005E7A67EE877AC6ED007A79B194F92430C9
:1001D00043B903900292019100F00CF90199029A3F
:1001E000039801E09FED550A06ED010A08365F44C9
:1001F000A6E7F7EE009A4B4EB0EE69BAC84500F09C
:10020000898094ED086A4E4B9FED4C7AFFEE005AC0
:10021000F0EE003AB6EE004A9D4226D053ED017A48
:1002200079EEE76AF4EEC47AF0EE654AE6EEA34AA8
:100230000833F1EE10FAD4BFF0EE696AF0EE656AA9
:1002400066EE266A39EEC65AE4EE856A37EE267AFD
:1002500053ED026A77EEA67AFCEEE76AF8EE666A7C
:1002600077EEE67A43ED037AD6E794ED05AAD4ED6E
:1002700007AA27EE0AAA00F0BDF8D4ED077A94ED9C
:100280000A7A7BEE6AAA20EE270AAAEE2A0AB4EEC0
:10029000C70AF1EE10FA08DD70EE477AD6ED0C6A67
:1002A000A7EEA67AB0EE470A0EE0F1EE477AB4EE7A
:1002B000E70AF1EE10FA41BF30EE070A96ED0C7A2C
:1002C000E0EE077AB0EE670AD4ED0B7A20EE270A4B
:1002D000FFEE007A20EE280AB4EEE70AF1EE10FAFB
:1002E00007DBB4EECB0AF1EE10FAA8BFB0EE690A54
:1002F00001E0BFEE000A60EE007A9FED127A60EE38
:10030000677A39EE089AA7EE870ABEEEE00AA8ECF3
:10031000010A73E784ED029A05B0BDEC088BBDE8D5
:10032000F08F00BF080400203C04002000F100080A
:100330008180803B49FFB8463EC3AE3700000000D5
:1003400040040020CDCC4C3D024A137B43F0010316
:100350001373704708040020704707EE901AF8EEF8
:10036000E77A06283ED8DFE800F00412161E223D88
:100370003600013107EE901AF8EEE77AF7EE006AE0
:1003800086EEA77A184B196183ED057A7047164BF4
:10039000013199617047DFED156A134B87EEA67A3C
:1003A00083ED077A7047104B83F824107047DFED18
:1003B0000F6A0D4B87EEA67AF7EE007AD3ED0C6A42
:1003C00083ED0A7A37EEC76AA6EE267AC7EE876A09
:1003D000C3ED0B6A70479FED067A034B67EE877A91
:1003E000C3ED087A704700BF080400200000C8422F
:0C03F0000820803A5FF800F0B9ED010829
:080400000C00000000000000E8
:040000052000004F88
:00000001FF
