:020000042000DA
:10000000554F5343000101000100000000000000B3
:100010004F000020C50000202103002031030020F4
:100020004300002045000020A10300200000000044
:1000300000000000000000000000000000000000C0
:100040007047704770477047704770477047104B54
:10005000104A2DE9F041884607460021934202D01C
:1000600003F8011FFAE70C4B0C4CE41AA41000250E
:100070001E46A54205D056F8253003B198470135F4
:10008000F7E74146384600F00BF8BDE8F08100BFC5
:100090000F040020C3040020400000204000002086
:1000A000074B4FF07E52022000211A601861002297
:1000B0000A209A605A60197358619A6119777047DB
:1000C000100400202DE9F04F8B4CD0ED007A94F80D
:1000D0000C80D4F81090DFF844B2884F0023FAEE79
:1000E000E07A237318F001032DED088B07EE102A38
:1000F00008BF94ED02AAC4ED017A18BFB0EE67AA5A
:1001000077EECA7AB8EE477A85B087EE878A019390
:100110005FFA89F301EB8208794A0E468246002590
:10012000594609EE103AD4ED008A636900935FFAEC
:1001300089F0854205DBF7EE009A714DF0EE69BA61
:10014000B8E013689D42F6DABAF804C09DF80030B2
:10015000DFED6C6A281A4FEA1C2E40105FFA8CFC07
:1001600003FB00C0FF2390FBF3F3C3EB032CB0EBC6
:100170000C0048BF03F1FF33734448BFFF3040EA2F
:10018000032080B20312962BD8BF9E46C0B203F163
:100190000103DBB207EE900AC8BF4FF0970E962B13
:1001A00088BF9723F8EEE77A01EB83030BEB8E0E03
:1001B00067EEA67A9EED007AD3ED006A019B76EE9B
:1001C000C76AA7EEA67ADFED507AB4EEE77AF1EED1
:1001D00010FAB8BFF0EE477A9FED4C7A67EE877A57
:1001E000C7ED007A6BB194F91D3033B903910292D7
:1001F00000F006F9029A039901E09FED450A07ED28
:10020000010A01350C3792E78A4225DA53ED027A6A
:10021000002F5FD139EEE77AB0EE666AA7EE246A66
:10022000B0EE467A93ED006AF8EE495A27EE067A68
:1002300089EEA56A01320C33A7EE06BA13ED047AF3
:1002400077EE877ABCEEE77AB8EE477A77EEC77A30
:1002500043ED057A8242D7D10090D4ED06AA00F092
:10026000CFF8D4ED067A009820EE270A7BEEEAAAB2
:10027000ABEE2A0A60EE287ABFEE000AF4EEC07AEE
:10028000F1EE10FA08DBF4EEE97AF1EE10FAB4BF01
:10029000B0EE670AB0EE690A60EE007A9FED1D7A53
:1002A00060EE677A3AEE08AAA7EE870ABEEEE00A89
:1002B000A6EC010A464517D0296894F91C70164B24
:1002C0009FED13BA0022B6EE005AFFEE006AF0EE80
:1002D000004ABFE7F4EEC57AF1EE10FAD4BFB0EEF3
:1002E000697AB0EE667A9DE784ED02AA05B0BDECAE
:1002F000088BBDE8F08F00BF1004002038040020F8
:10030000080400208180803B49FFB8463EC3AE37D9
:1003100000000000CDCC4C3D3C04002000F1000862
:10032000024A137B43F0010313737047100400204B
:100330007047194B194AD3ED047A116893ED086A96
:10034000F8EEE76AB6EE007A26EE877A24330022CA
:10035000B7EE005A07EE902AF8EEE77AF4EEE76A75
:10036000F1EE10FA17DD8A4215DAB4EEE77AF1EE13
:1003700010FA4CBF77EE677A77EEC77A013277EEE4
:10038000877A0C33C7EE875A75EE467AE5EE867AA1
:1003900043ED017ADEE770471004002008040020D6
:1003A00007EE901AF8EEE77A052824D8DFE800F087
:1003B00003080C14171A104B01311961FFF7B9BF6C
:1003C0000D4B013159617047DFED0C6A0A4B87EE26
:1003D000A67A83ED067A7047074B19777047064B6C
:1003E00059777047DFED056A034B87EEA67A83EDF8
:1003F000087AFFF79EBF7047100400200000C84233
:080400005FF800F0B9ED0108FE
:080408000C00000000000000E0
:040000052000004F88
:00000001FF
