:020000042000DA
:10000000554F5343000101000100000000000000B3
:100010004F000020C5000020510300206103002094
:100020004300002045000020630300200000000082
:1000300000000000000000000000000000000000C0
:100040007047704770477047704770477047104B54
:10005000104A2DE9F041884607460021934202D01C
:1000600003F8011FFAE70C4B0C4CE41AA41000250E
:100070001E46A54205D056F8253003B198470135F4
:10008000F7E74146384600F00BF8BDE8F08100BFC5
:10009000C70300207B040020400000204000002017
:1000A000074B4FF07E52022000211A601861002297
:1000B0000A209A605A60197358619A6119777047DB
:1000C000C80300202DE9F04F974CD0ED007A94F84A
:1000D0000C90257C954FDFF85CB20023FAEEE07AB5
:1000E000237319F001032DED088B07EE102A08BFCA
:1000F00094ED02AAC4ED017A18BFB0EE67AA77EEBC
:10010000CA7AB8EE477A85B0C7EE878A029301EBC8
:1001100082096369864A0193824688466E4207EEE9
:10012000905AF8EEE79AB6EE008A94ED009A69EEDE
:10013000889AA91916B113688B4202DC7C4E0127FC
:10014000D1E0BAF804309DF804E094ED087A07EEA7
:10015000901A4FEA132CF8EEE77ADBB270100EFB20
:100160000030FF2390FBF3F3C3EB032EF4EEE79A8A
:10017000B0EB0E0044BF03F1FF33FF30F1EE10FA95
:100180004CBF79EEE77A77EEE97A634477EEA97AA5
:1001900040EA0320C7EEA96A80B24FEA202CBCF1E6
:1001A000960FD4BF63469723C0B20CF1010C0CF03C
:1001B000FF0C0BEB8303BCF1960F88BF4FF0970C3D
:1001C000F7EE007A77EEC77AE6EE877A93ED007A5B
:1001D000C7ED017A07EE900A564BDFED576AF8EE4D
:1001E000E77A03EB8C0C67EEA67ADCED006A029BE3
:1001F00076EEC76AA7EEA67ADFED507AB4EEE77A1C
:10020000F1EE10FAB8BFF0EE477A9FED4D7A67EE47
:10021000877AC7ED007A5BB194F91D3023B9039258
:1002200000F0C8F8039A01E09FED460A07ED010AC5
:100230000C3701367DE78A4227DA53ED027A00282F
:1002400061D135EEE77AF0EE466AE7EE056AB0EE88
:10025000667AD3ED006A97FBF5FE27EE267A06EE66
:1002600090EAF8EEE66A0132A7EE26BA0C3313EDF7
:10027000047A77EE877ABCEEE77AB8EE477A77EEC3
:10028000C77A43ED057AAA42D5D1D4ED06AA00F08B
:1002900091F8D4ED067AF7EE009A20EE270A79EE6F
:1002A000EAAAABEE2A0A60EE097ABFEE000AF4EE83
:1002B000C07AF1EE10FA08DBF4EEE97AF1EE10FA0A
:1002C000B4BFB0EE670AB0EE690A60EE007A9FED47
:1002D0001E7A60EE677A3AEE28AAA7EE870ABEEE8B
:1002E000E00AA8EC010AC84517D0316894F91C004F
:1002F000164B9FED14BA0022BFEE006AF7EE005ACB
:10030000B0EE005ABFE7F4EEC87AF1EE10FAD4BFAF
:10031000B0EE657AB0EE467A9BE784ED02AA05B0AE
:10032000BDEC088BBDE8F08FC8030020F00300206F
:10033000C003002000F100088180803B49FFB846DF
:100340003EC3AE3700000000CDCC4C3DF40300208E
:10035000024A137B43F0010313737047C803002064
:10036000704707EE901A9FED117AF8EEE77A67EE84
:10037000877A052819D8DFE800F003070B0F12155C
:100380000B4B013119617047094B013159617047BD
:10039000074BC3ED067A7047054B19777047044B3E
:1003A00059777047024BC3ED087A70470820803AAE
:0C03B000C80300205FF800F0B9ED010860
:0803C0000C0000000000000029
:040000052000004F88
:00000001FF
