:020000042000DA
:10000000554F5343000101000100000000000000B3
:100010004F000020C5000020610300207103002074
:100020004300002045000020730300200000000072
:1000300000000000000000000000000000000000C0
:100040007047704770477047704770477047104B54
:10005000104A2DE9F041884607460021934202D01C
:1000600003F8011FFAE70C4B0C4CE41AA41000250E
:100070001E46A54205D056F8253003B198470135F4
:10008000F7E74146384600F00BF8BDE8F08100BFC5
:10009000DF03002063040020400000204000002017
:1000A000074B4FF07E52022000211A601861002297
:1000B0000A209A605A60197358619A6119777047DB
:1000C000E00300202DE9F04F9B4CD0ED007A94F82E
:1000D0000C80D4F81090DFF884B2984F0023FAEE29
:1000E000E07A237318F001032DED088B07EE102A38
:1000F00008BF94ED02AAC4ED017A18BFB0EE67AA5A
:1001000077EECA7AB8EE477A85B087EE878A019390
:100110005FFA89F301EB8208894A0E468246002580
:10012000594609EE103AD4ED008A636900935FFAEC
:1001300089F0854205DBF7EE009A814DF0EE69BA51
:10014000CBE013689D42F6DABAF804C09DF800309F
:10015000DFED7C6A281A4FEA1C2E40105FFA8CFCF7
:1001600003FB00C0FF2390FBF3F3C3EB032CB0EBC6
:100170000C0048BF03F1FF33734448BFFF3040EA2F
:10018000032080B20312962BD8BF9E46C0B203F163
:100190000103DBB207EE900AC8BF4FF0970E962B13
:1001A00088BF9723F8EEE77A01EB83030BEB8E0E03
:1001B00067EEA67A9EED007AD3ED006A019B76EE9B
:1001C000C76AA7EEA67ADFED607AB4EEE77AF1EEC1
:1001D00010FAB8BFF0EE477A9FED5C7A67EE877A47
:1001E000C7ED007A6BB194F91D3033B903910292D7
:1001F00000F0ECF8029A039901E09FED550A07ED33
:10020000010A0135083792E78A4221DA53ED017A73
:10021000002F72D139EEE77AB0EE666AA7EE246A53
:10022000B0EE467AF8EE495A013289EEA56A0833F3
:10023000A6EE07BA13ED027A77EE877ABCEEE77A7C
:10024000B8EE477A77EEC77A43ED037A8242DBD184
:100250000090D4ED06AA00F0B9F8D4ED067A9FED2F
:100260003D7A009820EE270A7BEEEAAAD4ED087AC0
:10027000ABEE2A0AB4EEE70AF1EE10FA47DD30EEF3
:10028000670AF0EE676AE0EE076AB0EE660A7BEE98
:10029000E76AE6EE877A80EE277AFFEE007A27EEAD
:1002A000287AB4EEE77AF1EE10FA08DBB4EEE97AD8
:1002B000F1EE10FAB4BFF0EE477AF0EE697A27EE6D
:1002C000A77ADFED256A27EEC77A3AEE08AAE7EEAD
:1002D000267AFEEEE07AE6EC017A464525D02968DA
:1002E00094F91C70154B9FED1ABA0022B6EE005A15
:1002F000FFEE006AF0EE004AA8E7F4EEC57AF1EEF0
:1003000010FAD4BFB0EE697AB0EE667A8AE7F1EE01
:10031000676AB4EEE60AF1EE10FA42BF30EE270A41
:10032000E0EE076AB0EE660AB1E784ED02AA05B016
:10033000BDEC088BBDE8F08FE0030020080400202E
:10034000D80300208180803B49FFB8463EC3AE37CA
:1003500000000000CDCC4C3ECDCC4C3D00F100085F
:10036000024A137B43F0010313737047E00300203C
:10037000704707EE901AF8EEE77A052821D8DFE8F3
:1003800000F003070B1316190E4B0131196170476A
:100390000C4B013159617047DFED0B6A094B87EE59
:1003A000A67A83ED067A7047064B19777047054B9E
:1003B00059777047DFED046A024B87EEA67A83ED2A
:1003C000087A7047E00300200000C8425FF800F0A0
:0403D000B9ED01087A
:0803D8000C0000000000000011
:040000052000004F88
:00000001FF
