:020000042000DA
:10000000554F5343000101000100000000000000B3
:100010004F000020CD0000205D0300206D03002074
:1000200043000020450000206F0300200000000076
:1000300000000000000000000000000000000000C0
:100040007047704770477047704770477047104B54
:10005000104A2DE9F041884607460021934202D01C
:1000600003F8011FFAE70C4B0C4CE41AA41000250E
:100070001E46A54205D056F8253003B198470135F4
:10008000F7E74146384600F00BF8BDE8F08100BFC5
:1000900017040020AB040020400000204000002096
:1000A000084B4FF07E5200211A6019730022022182
:1000B0009A605A601961DA610A211A62024A9961EA
:1000C0001A63704718040020CDCC4C3E2DE9F04F48
:1000D000994CD0ED007A94F80C90B0F80480DFF8D9
:1000E00078A2964E0023FAEEE07A237319F001030A
:1000F0002DED088B07EE102A08BF94ED029AC4ED8F
:10010000017A18BFB0EE679A77EEC97AB8EE477AEF
:1001100085B087EE878A01EB82090D46A2692169C5
:1001200000934FEA182B00275FFA88F85046D4ED69
:10013000008ADFED839A5FFA81FE774560DACEEBC5
:10014000070ED3B24FEA6E0E03FB0E8E4FF0FF0C7C
:100150009EFBFCFCCCEB0C23BEEB030348BF0CF175
:10016000FF3CDC4448BFFF3343EA0C239BB24FEA19
:10017000232EBEF1960FD8BFF4460EF1010E5FFAA2
:100180008EFEDBB2C8BF4FF0970CBEF1960F07EEA4
:10019000903A88BF4FF0970E0AEB8C0C00EB8E0E56
:1001A0009CED007ADEED006A009BF8EEE77A76EED1
:1001B000C76A67EEA97AA7EEA67ADFED627AB4EE97
:1001C000E77AF1EE10FAB8BFF0EE477A9FED5E7A6B
:1001D00067EE877AC6ED007A7BB194F9243043B993
:1001E00003900292019100F00FF90199029A03988D
:1001F00001E09FED560A06ED010A013708369AE73D
:10020000534FF7EE009A07EBCE0E0EF10406B0EE58
:1002100069BA343F4D4500F08780D4ED086AD4EDCB
:10022000055A464BDFED49AABFEE006AF0EE003AF0
:10023000B6EE004A9E4226D053ED017A39EEE77AB7
:10024000F4EEC47AF0EE464AE7EE234A0833F1EEC4
:1002500010FAD4BFB0EE697AB0EE467A26EE877A0D
:1002600039EEE65AA4EE857AE5EE87AA13ED027A16
:1002700077EE877ABCEEE77AB8EE477A77EEC77A00
:1002800043ED037AD6E794ED07AA00F0BDF8D4ED6C
:10029000077A94ED0A7A3BEE4AAA20EE270AAAEEE4
:1002A0008A0AB4EEC70AF1EE10FA08DD70EE477A5A
:1002B000D7ED0C6AA7EEA67AB0EE470A0EE0F1EE93
:1002C000477AB4EEE70AF1EE10FA41BF30EE070AC2
:1002D00097ED0C7AE0EE077AB0EE670AD4ED0B7A70
:1002E00020EE270AFFEE007A20EE280AB4EEE70A95
:1002F000F1EE10FA07DBB4EECB0AF1EE10FAA8BF6C
:10030000B0EE690A01E0BFEE000A60EE007A9FEDF0
:10031000117A60EE677A39EE089AA7EE870ABEEE88
:10032000E00AA5EC010A75E784ED029A05B0BDEC80
:10033000088BBDE8F08F00BF180400205004002097
:100340008180803B49FFB8463EC3AE3700000000C5
:100350004C040020CDCC4C3D00F10008024A137B38
:1003600043F001031373704718040020704707EE31
:10037000901AF8EEE77A06283ED8DFE800F004127B
:10038000161E223D3600013107EE901AF8EEE77A8C
:10039000F7EE006A86EEA77A184B196183ED057AAD
:1003A0007047164B013199617047DFED156A134BA9
:1003B00087EEA67A83ED077A7047104B83F82410F6
:1003C0007047DFED0F6A0D4B87EEA67AF7EE007AE5
:1003D000D3ED0C6A83ED0A7A37EEC76AA6EE267A69
:1003E000C7EE876AC3ED0B6A70479FED067A034B31
:1003F00067EE877AC3ED087A704700BF18040020C3
:100400000000C8420820803A5FF800F0B9ED01080A
:080410000C00000000000000D8
:040000052000004F88
:00000001FF
