:020000042000DA
:10000000554F5343000101000100000000000000B3
:100010004F000020C5000020110300202103002014
:1000200043000020450000202303002000000000C2
:1000300000000000000000000000000000000000C0
:100040007047704770477047704770477047104B54
:10005000104A2DE9F041884607460021934202D01C
:1000600003F8011FFAE70C4B0C4CE41AA41000250E
:100070001E46A54205D056F8253003B198470135F4
:10008000F7E74146384600F00BF8BDE8F08100BFC5
:100090007F030020FF0300204000002040000020DC
:1000A000074B4FF07E52022000211A601861002297
:1000B0000A209A605A60197358619A6119777047DB
:1000C000800300202DE9F04F2DED068B874BD0EDFE
:1000D000007ADFF838E2D3ED009ADFED855A9FED24
:1000E000856A9FED855A0F46197BFAEEE07A11F08A
:1000F00001014FF0000408BF93ED029A1C7307EE54
:10010000102A1C69C3ED017A18BFB0EE679A77EE2A
:10011000C97AB8EE477A07EB8208E2B2012A85B0C5
:1001200088BF032587EE87AA88BFB2FBF5F201914D
:100130005969724D93F91D3003934FF00006E4B2F4
:10014000C9B24FF0FF09F24688BF07EE902A6C4A09
:1001500088BFF8EEE78A1268029298BFF7EE008A2D
:10016000A64204DB614D664EDFED66AA9AE0029B73
:100170009E42F7DAB0F804C0321B53105FFA8CF2DB
:100180004FEA1C2B01FB032292FBF9F3C3EB032C78
:10019000B2EB0C0244BF03F1FF33FF325B4442EA8F
:1001A000032292B21312962BD8BF9C4603F101038F
:1001B000DBB2C8BF4FF0970CD2B2962B88BF972303
:1001C00007EE902A0AEB83030EEB8C0C9CED007A71
:1001D000D3ED006A019BF8EEE77A76EEC76A67EE28
:1001E000A57AA7EEA67AB4EEC67AF0EE477AF1EEDB
:1001F00010FAA8BFF0EE467A67EE857AC5ED007A70
:100200000BB1039B13B955F8043C00E0002345F8FB
:10021000043C01360835A3E78A421DDA53ED017A22
:10022000002852D175EEE76AB0EE464AA6EEA44A1F
:10023000F0EE446A37EE267AD3ED006A77EEA67ABE
:100240000132FCEEE76A0833F8EE666A77EEE67A8A
:1002500043ED037AA242DFD187EE288A00F086F8C8
:10026000D5ED067AA7EE808AFFEE007A28EE297A8D
:10027000B4EEE77AF1EE10FA08DBF7EE007AB4EEAE
:10028000E77AF1EE10FAB8BFF0EE477A27EEA77AD8
:1002900039EE0A9A27EEC77AE7EE2A7AFEEEE07A7E
:1002A000E7EC017A4745114B19D0316895F91C00EC
:1002B0009FED157A24330022B6EE005ABFEE006A95
:1002C000F7EE005AF0EE004AC4E7F4EEC57AF1EE1C
:1002D00010FAD4BFF0EE656AF0EE466AAAE783ED45
:1002E000029A05B0BDEC068BBDE8F08F80030020BC
:1002F0008180803B49FFB8463EC3AE37A40300204F
:1003000078030020CDCC4C3D0000000000F1000837
:10031000024A137B43F001031373704780030020EC
:10032000704704281DD8DFE800F003070B171A00F8
:100330000C4B0131196170470A4B0131596170470B
:1003400007EE901A9FED087A064BF8EEE77A67EE13
:10035000877AC3ED067A7047024B19777047014BD5
:1003600059777047800300200820803A5FF800F03A
:04037000B9ED0108DA
:080378000C0000000000000071
:040000052000004F88
:00000001FF
