:020000042000DA
:10000000554F5343000101000100000000000000B3
:100010004F000020C5000020F5020020050300204D
:1000200043000020450000200703002000000000DE
:1000300000000000000000000000000000000000C0
:100040007047704770477047704770477047104B54
:10005000104A2DE9F041884607460021934202D01C
:1000600003F8011FFAE70C4B0C4CE41AA41000250E
:100070001E46A54205D056F8253003B198470135F4
:10008000F7E74146384600F00BF8BDE8F08100BFC5
:100090005F030020DF03002040000020400000201C
:1000A000074B4FF07E52022000211A601861002297
:1000B0000A209A605A60197358619A6119777047DB
:1000C000600300202DE9F04F2DED068B804BD0ED25
:1000D000007A93ED009A93F91DC01F7C93F8148069
:1000E000DFED7C5A9FED7C6A9FED7C5A0E46197BB2
:1000F000FAEEE07A11F0010107EE102A08BFD3ED05
:10010000028AC3ED017A18BFF0EE678A77EEE87ACB
:10011000B8EE477A85B0C7EE879A06EB8202019265
:100120006F4A029100246F491C7312686E4C03924F
:1001300000254FF0FF098A46BD4204DB644C684D40
:100140009FED6AAA9FE0039B9D42F7DAB0F804E0B6
:10015000EA1B53105FFA8EF24FEA1E2B08FB0322B4
:1001600092FBF9F3C3EB032EB2EB0E0244BF03F193
:10017000FF33FF325B4442EA032292B21312962B02
:10018000D8BF9E4603F10103DBB2C8BF4FF0970E04
:10019000D2B2962B88BF972307EE902A0AEB8303EF
:1001A00001EB8E0E9EED007AD3ED006A029BF8EE15
:1001B000E77A76EEC76A67EEA57AA7EEA67AB4EE7E
:1001C000C67AF0EE477AF1EE10FAA8BFF0EE467A62
:1001D00067EE857AC4ED007A13B1BCF1000F02D14D
:1001E00054F8043C00E0002344F8043C0135083492
:1001F000A2E78A421DDA53ED017A002857D175EE45
:10020000E76AB0EE464AA6EEA44AF0EE446A37EE3C
:10021000267AD3ED006A77EEA67A0132FCEEE76A21
:100220000833F8EE666A77EEE67A43ED037ABA426F
:10023000DFD107EE907AF8EEE77A87EE278A00F0B2
:1002400087F8D4ED067AA7EE808AFFEE007A28EED2
:10025000097AB4EEE77AF1EE10FA08DBF7EE007AED
:10026000B4EEE77AF1EE10FAB8BFF0EE477A27EE77
:10027000A77A78EEA98A27EEC77AE7EE0A7AFEEE29
:10028000E07AE6EC017A019B9E42114B19D0296875
:1002900094F91C009FED167A24330022B6EE005A22
:1002A000BFEE006AF7EE005AF0EE004ABFE7F4EE48
:1002B000C57AF1EE10FAD4BFF0EE656AF0EE466A48
:1002C000A5E7C3ED028A05B0BDEC068BBDE8F08F53
:1002D000600300208180803B49FFB8463EC3AE37B3
:1002E0005803002000F1000884030020CDCC4C3DD1
:1002F00000000000024A137B43F0010313737047B0
:1003000060030020704704281DD8DFE800F00307D1
:100310000B171A000C4B0131196170470A4B013160
:100320005961704707EE901A9FED087A064BF8EE78
:10033000E77A67EE877AC3ED067A7047024B197742
:100340007047014B59777047600300200820803ABE
:080350005FF800F0B9ED0108AF
:080358000C0000000000000091
:040000052000004F88
:00000001FF
